:020000040800F2
:100000000000032081040008D3040008E104000874
:10001000E7040008ED040008F304000800000000F5
:10002000000000000000000000000000F9040008CB
:10003000070500080000000015050008230500085A
:10004000D1040008D1040008D1040008D10400083C
:10005000D1040008D1040008D1040008D10400082C
:10006000D1040008D1040008D1040008D10400081C
:10007000D1040008D1040008D1040008D10400080C
:10008000D1040008D1040008D1040008D1040008FC
:10009000D1040008D1040008D1040008D1040008EC
:1000A000D1040008D1040008D1040008D1040008DC
:1000B000D1040008D1040008D1040008D1040008CC
:1000C000D1040008D1040008D1040008D1040008BC
:1000D000D1040008D1040008D1040008D1040008AC
:1000E000D1040008D1040008D1040008D10400089C
:1000F000D1040008D1040008D1040008D10400088C
:10010000D1040008D1040008D1040008D10400087B
:10011000D1040008D1040008D1040008D10400086B
:10012000D1040008D1040008D1040008D10400085B
:10013000D1040008D1040008D1040008D10400084B
:10014000D1040008D1040008D1040008D10400083B
:10015000D1040008D1040008D1040008D10400082B
:10016000D1040008D1040008D1040008D10400081B
:10017000D1040008D1040008D1040008D10400080B
:10018000D1040008D1040008D1040008D1040008FB
:10019000D1040008D1040008D1040008D1040008EB
:0C01A000D1040008D1040008D1040008BC
:1001AC0010B5054C237833B9044B13B10448AFF3A5
:1001BC0000800123237010BD1400002000000000FB
:1001CC001408000808B5034B1BB103490348AFF3EF
:1001DC00008008BD00000000180000201408000872
:1001EC0080B483B000AF03463960FB7197F90730D8
:1001FC00002B0BDA0D49FB7903F00F03043B3A6833
:10020C00D2B21201D2B20B441A7609E0084997F91E
:10021C0007303A68D2B21201D2B20B4483F80023F1
:10022C0000BF0C37BD465DF8047B704700ED00E065
:10023C0000E100E080B582B000AF78607B68013BE4
:10024C00B3F1807F01D301230FE00A4A7B68013BA5
:10025C0053600F214FF0FF30FFF7C2FF054B002218
:10026C009A60044B07221A60002318460837BD46D3
:10027C0080BD00BF10E000E080B400AF044B1B68F1
:10028C000133034A136000BFBD465DF8047B704721
:10029C003000002080B485B000AF7860084B1B683C
:1002AC00FB6000BF064B1A68FB68D21A7B689A4247
:1002BC00F8D300BF1437BD465DF8047B704700BF10
:1002CC003000002080B582B000AF00F061F90C4B1B
:1002DC001B680C4A934200D0FEE7094B1B680A4A84
:1002EC00A2FB03239B091846FFF7A4FF78607B68E9
:1002FC00002B00D0FEE700BF0837BD4680BD00BF15
:10030C00000000200095BA0AD34D621080B483B06F
:10031C0000AF0346FB71FB79002B02D0012B31D0CF
:10032C0061E0344A334B1B6B43F040031363324A96
:10033C00314B1B6843F0806313602F4A2E4B1B68B4
:10034C0023F0006313602C4A2B4B5B6823F400539F
:10035C005360294A284B9B6843F080639360264A7C
:10036C00254B9B6823F000639360234A224BDB6888
:10037C0023F08063D360204A1F4BDB6823F00063BB
:10038C00D36030E01B4A1B4B1B6B43F040031363E1
:10039C00194A194B1B6843F080531360164A164BCD
:1003AC001B6823F000531360134A134B5B6823F450
:1003BC0080435360104A104B9B6843F0805393600A
:1003CC000D4A0D4B9B6823F0005393600A4A0A4B6D
:1003DC00DB6823F08053D360074A074BDB6823F0BC
:1003EC000053D36000BF00BF0C37BD465DF8047BE3
:1003FC00704700BF003802400018024080B483B040
:10040C0000AF0346FB71FB79002B02D0012B05D00A
:10041C0009E0084B4FF400521A8304E0054B4FF4EB
:10042C0080421A8300BF00BF0C37BD465DF8047BC9
:10043C00704700BF0018024080B483B000AF034681
:10044C00FB71FB79002B02D0012B05D009E0084B86
:10045C004FF400525A8304E0054B4FF480425A8308
:10046C0000BF00BF0C37BD465DF8047B704700BF72
:10047C0000180240DFF834D0002103E00C4B5B582D
:10048C00435004310B480C4B42189A42F6D30B4A9A
:10049C0002E0002342F8043B094B9A42F9D300F0E6
:1004AC0041F800F08DF900F06BF970470000032063
:1004BC003408000800000020140000201400002064
:1004CC0034000020FEE780B400AF00BFBD465DF8ED
:1004DC00047B704780B400AFFEE780B400AFFEE74A
:1004EC0080B400AFFEE780B400AFFEE780B400AF8D
:1004FC0000BFBD465DF8047B704780B400AF00BF01
:10050C00BD465DF8047B704780B400AF00BFBD46AC
:10051C005DF8047B704780B500AFFFF7ADFE00BF00
:10052C0080BD000080B500AF164A164BD3F888305A
:10053C0043F47003C2F88830134A134B1B6843F022
:10054C0001031360104B00229A600F4A0E4B1B687C
:10055C0023F0847323F4803313600B4B0B4A5A60E3
:10056C00094A094B1B6823F480231360064B0022B5
:10057C00DA6000F089F8034B4FF000629A6000BF1C
:10058C0080BD00BF00ED00E00038024010300024B8
:10059C0080B487B000AF00233B6100237B61022352
:1005AC00FB600023BB6002237B60324B9B6803F033
:1005BC000C033B613B69042B07D0082B09D0002BA3
:1005CC003DD12D4B2D4A1A603DE02B4B2C4A1A6025
:1005DC0039E0284B5B689B0D03F00103BB60254B96
:1005EC005B6803F03F037B60BB68002B0CD0244A94
:1005FC007B68B2FBF3F31F4A52689209C2F30802FC
:10060C0002FB03F37B610BE01C4A7B68B2FBF3F348
:10061C00184A52689209C2F3080202FB03F37B6189
:10062C00144B5B681B0C03F0030301335B00FB6092
:10063C007A69FB68B2FBF3F30F4A136003E00E4BCD
:10064C000E4A1A6000BF0B4B9B681B0903F00F038B
:10065C000C4AD35CDBB23B61074B1A683B6922FA4C
:10066C0003F3054A136000BF1C37BD465DF8047BDD
:10067C00704700BF00380240000000200024F40046
:10068C0000127A000400002080B483B000AF002375
:10069C007B6000233B60364A354B1B6843F4803348
:1006AC001360334B1B6803F400333B607B680133EE
:1006BC007B603B68002B03D17B68B3F5A06FF0D156
:1006CC002B4B1B6803F40033002B02D001233B603F
:1006DC0001E000233B603B68012B02D1244B254AEF
:1006EC005A60234A224B1B6C43F080531364224AFA
:1006FC00214B1B6843F4404313601D4A1C4B9B6801
:10070C0093601B4A1A4B9B6843F400439360184A4E
:10071C00174B9B6843F4A0539360154A144B1B680A
:10072C0043F08073136000BF114B1B6803F0007320
:10073C00002BF9D0114B40F205721A600C4A0C4B8D
:10074C009B6823F003039360094A094B9B6843F0B1
:10075C000203936000BF064B9B6803F00C03082B4D
:10076C00F9D100BF0C37BD465DF8047B704700BF64
:10077C0000380240085A400700700040003C02401C
:10078C0080B500AFFFF79EFD0020FFF7BFFD0120F5
:10079C00FFF7BCFD0020FFF731FE0120FFF72EFE16
:1007AC004FF49670FFF776FD0020FFF745FE012011
:1007BC00FFF742FE4FF49670FFF76CFDEAE700007E
:1007CC0070B50D4E0D4CA41BA4100025A54209D1EB
:1007DC000B4E0C4C00F018F8A41BA4100025A542DD
:1007EC0005D170BD56F8253098470135EEE756F81F
:1007FC00253098470135F2E72C0800082C08000832
:10080C002C08000830080008F8B500BFF8BC08BC7C
:10081C009E467047F8B500BFF8BC08BC9E467047B2
:04082C00D1010008EE
:04083000AD0100080E
:100834000095BA0A00000000000000000102030451
:040844000607080992
:04000005080004816A
:00000001FF
